:100000000C9446000C9465000C9465000C946500FB
:100010000C9465000C9465000C9465000C946500CC
:100020000C9465000C9465000C9465000C946500BC
:100030000C9465000C940C010C9465000C94650004
:100040000C9465000C9465000C9465000C9465009C
:100050000C9465000C9465000C9465000C9465008C
:100060000C9465000C9465000C9465000C9465007C
:100070000C9465000C9465000C9465000C9465006C
:100080000C9465000C9465000C94650011241FBE4F
:10009000CFEFD0E4DEBFCDBF11E0A0E0B1E0E6ECF1
:1000A000F5E000E00BBF02C007900D92A231B1074E
:1000B000D9F721E0A2E1B1E001C01D92A032B20760
:1000C000E1F70E94B0020C94E1020C940000CF937F
:1000D000DF9300D01F92CDB7DEB789837B836A831D
:1000E00089818A3031F48A819B81BC018DE00E9434
:1000F000670080EC90E0FC018081882F90E08072A6
:100100009927892BB1F386EC90E02981FC012083AB
:1001100080E090E00F900F900F90DF91CF910895C5
:10012000CF93DF9300D000D0CDB7DEB769837A8359
:100130008B839C8389819A81AB81BC8180930E01E2
:1001400090930F01A0931001B093110180910E01C3
:1001500090910F01A0911001B091110180931301B2
:1001600090931401A0931501B093160100000F9015
:100170000F900F900F90DF91CF910895CF93DF9361
:10018000CDB7DEB781E890E02BE0FC01208388E862
:1001900090E02DE730E0FC01318320838FE690E092
:1001A00022E0FC01208384E890E0FC0111821082AF
:1001B00080910E0190910F01A0911001B091110159
:1001C0008093130190931401A0931501B09316012D
:1001D0008FE590E02FE530E0F90120812068FC01F7
:1001E00020830000DF91CF910895CF93DF93CDB7A7
:1001F000DEB781E890E0FC0110820000DF91CF9132
:100200000895CF93DF93CDB7DEB781E080931201DD
:100210000000DF91CF9108951F920F9200905F0030
:100220000F92112400905B000F922F933F934F93F6
:100230005F936F937F938F939F93AF93BF93EF934E
:10024000FF93CF93DF93CDB7DEB7809113019091E9
:100250001401A0911501B09116010197A109B109EE
:100260008093130190931401A0931501B09316018C
:100270008091130190911401A0911501B091160184
:10028000892B8A2B8B2B91F40E94010180910E0106
:1002900090910F01A0911001B09111018093130171
:1002A00090931401A0931501B09316010000DF9103
:1002B000CF91FF91EF91BF91AF919F918F917F91DE
:1002C0006F915F914F913F912F910F9000925B0042
:1002D0000F9000925F000F901F901895CF93DF93BF
:1002E000CDB7DEB780911B0190911C018230910542
:1002F000E9F08330910528F4009751F0019779F0E7
:100300006CC08330910579F1049709F449C065C048
:1003100081E090E090931C0180931B0163C082E018
:1003200090E090931C0180931B015CC020911E0102
:100330008BEA289F812D1124982F9695892F880F5D
:10034000890F922F981B992339F483E090E09093C2
:100350001C0180931B0146C082E090E090931C0139
:1003600080931B013FC020911E018BEA289F812DA5
:100370001124982F9695892F880F890F922F981BFB
:10038000992339F484E090E090931C0180931B0141
:1003900029C083E090E090931C0180931B0122C050
:1003A00020911E018BEA289F812D1124982F96956C
:1003B000892F880F890F922F981B992339F482E097
:1003C00090E090931C0180931B010CC084E090E0AE
:1003D00090931C0180931B0105C010921C01109288
:1003E0001B01000080911B0190911C01823091053E
:1003F00089F08330910528F4009739F1019739F09D
:1004000025C08330910579F00497B1F01FC0109298
:100410001D011CC081E080931D0180911E018F5F32
:1004200080931E0113C082E080931D0180911E0104
:100430008F5F80931E010AC084E080931D0180912C
:100440001E018F5F80931E0101C000000000DF913C
:10045000CF910895CF93DF93CDB7DEB78091190187
:1004600090911A018130910581F08130910530F031
:100470008230910589F00397B1F01CC081E090E0D3
:1004800090931A01809319011AC082E090E0909332
:100490001A018093190113C083E090E090931A0130
:1004A000809319010CC082E090E090931A01809330
:1004B000190105C010921A011092190100008091D3
:1004C000190190911A018130910549F0813091050F
:1004D00080F08230910531F0039741F00BC010920B
:1004E0001F0108C088E080931F0104C010921F0103
:1004F00001C000000000DF91CF910895CF93DF93FA
:10050000CDB7DEB78091170190911801009719F0CF
:10051000019769F007C081E090E090931801809303
:10052000170106C0109218011092170101C00000B7
:100530008091170190911801009769F0019709F0D7
:100540000BC085E290E030911F0120911D01232B0B
:10055000FC01208301C000000000DF91CF910895CD
:10056000CF93DF93CDB7DEB784E290E02FEFFC01AD
:10057000208385E290E0FC01108210921C01109211
:100580001B0110921A011092190110921801109279
:10059000170110921E0164E670E080E090E00E9476
:1005A00090000E94BE000E946E010E942A020E94DA
:1005B0007E020000809112018823E1F31092120163
:0605C000F2CFF894FFCF1A
:1005C60000000002000000006700000000000100BB
:0205D600000023
:00000001FF
