:100000000C9446000C9465000C9465000C946500FB
:100010000C9465000C9465000C9465000C946500CC
:100020000C9465000C9465000C9465000C946500BC
:100030000C9465000C940C010C9465000C94650004
:100040000C9465000C9465000C9465000C9465009C
:100050000C9465000C9465000C9465000C9465008C
:100060000C9465000C9465000C9465000C9465007C
:100070000C9465000C9465000C9465000C9465006C
:100080000C9465000C9465000C94650011241FBE4F
:10009000CFEFD0E4DEBFCDBF11E0A0E0B1E0E2E6FB
:1000A000F7E000E00BBF02C007900D92A231B1074C
:1000B000D9F721E0A2E1B1E001C01D92A532B2075B
:1000C000E1F70E9468030C94AF030C940000CF93F7
:1000D000DF9300D01F92CDB7DEB789837B836A831D
:1000E00089818A3031F48A819B81BC018DE00E9434
:1000F000670080EC90E0FC018081882F90E08072A6
:100100009927892BB1F386EC90E02981FC012083AB
:1001100080E090E00F900F900F90DF91CF910895C5
:10012000CF93DF9300D000D0CDB7DEB769837A8359
:100130008B839C8389819A81AB81BC8180930E01E2
:1001400090930F01A0931001B093110180910E01C3
:1001500090910F01A0911001B091110180931301B2
:1001600090931401A0931501B093160100000F9015
:100170000F900F900F90DF91CF910895CF93DF9361
:10018000CDB7DEB781E890E02BE0FC01208388E862
:1001900090E02DE730E0FC01318320838FE690E092
:1001A00022E0FC01208384E890E0FC0111821082AF
:1001B00080910E0190910F01A0911001B091110159
:1001C0008093130190931401A0931501B09316012D
:1001D0008FE590E02FE530E0F90120812068FC01F7
:1001E00020830000DF91CF910895CF93DF93CDB7A7
:1001F000DEB781E890E0FC0110820000DF91CF9132
:100200000895CF93DF93CDB7DEB781E080931201DD
:100210000000DF91CF9108951F920F9200905F0030
:100220000F92112400905B000F922F933F934F93F6
:100230005F936F937F938F939F93AF93BF93EF934E
:10024000FF93CF93DF93CDB7DEB7809113019091E9
:100250001401A0911501B09116010197A109B109EE
:100260008093130190931401A0931501B09316018C
:100270008091130190911401A0911501B091160184
:10028000892B8A2B8B2B91F40E94010180910E0106
:1002900090910F01A0911001B09111018093130171
:1002A00090931401A0931501B09316010000DF9103
:1002B000CF91FF91EF91BF91AF919F918F917F91DE
:1002C0006F915F914F913F912F910F9000925B0042
:1002D0000F9000925F000F901F901895CF93DF93BF
:1002E000CDB7DEB780911E0190911F01823091053C
:1002F000E9F08330910528F4009751F0019779F0E7
:100300007EC083309105A9F1049709F455C077C0E8
:1003100081E090E090931F0180931E0175C082E000
:1003200090E090931F0180931E016EC020912101E7
:1003300089E8289F812D1124982F9695969596955A
:10034000892F880F890F982F990F990F890F922F56
:10035000981B992339F483E090E090931F018093D8
:100360001E0152C082E090E090931F0180931E0115
:100370004BC02091210189E8289F812D1124982FBD
:10038000969596959695892F880F890F982F990F96
:10039000990F890F922F981B992339F484E090E0EC
:1003A00090931F0180931E012FC083E090E09093F3
:1003B0001F0180931E0128C02091210189E8289FF8
:1003C000812D1124982F969596959695892F880FB3
:1003D000890F982F990F990F890F922F981B9923A6
:1003E00039F482E090E090931F0180931E010CC0CD
:1003F00084E090E090931F0180931E0105C010924D
:100400001F0110921E01000080911E0190911F019A
:100410008230910589F08330910528F4009739F1F5
:10042000019739F025C08330910579F00497B1F038
:100430001FC0109220011CC081E080932001809198
:1004400021018F5F8093210113C082E080932001FE
:10045000809121018F5F809321010AC084E0809305
:100460002001809121018F5F8093210101C0000054
:100470000000DF91CF910895CF93DF93CDB7DEB722
:1004800080911B0190911C018130910581F0813098
:10049000910530F08230910589F0039739F13EC023
:1004A00081E090E090931C0180931B013FC082E0AB
:1004B00090E090931C0180931B0138C0209124018F
:1004C0008DEC289F812D1124982F96959695892F34
:1004D000880F880F890F922F981B992321F583E0AD
:1004E00090E090931C0180931B011DC0209124017A
:1004F0008DEC289F812D1124982F96959695892F04
:10050000880F880F890F922F981B992371F482E02E
:1005100090E090931C0180931B0107C010921C0176
:1005200010921B0103C0000001C0000080911B015C
:1005300090911C018130910549F081309105D0F0F6
:100540008230910531F0039769F015C010922301B4
:1005500012C088E080932301809124018F5F8093F3
:10056000240109C010922301809124018F5F8093A0
:10057000240101C000000000DF91CF910895CF93C6
:10058000DF93CDB7DEB78091190190911A018130C8
:10059000910581F08130910530F082309105E1F0D4
:1005A000039761F13DC081E090E090931A01809340
:1005B00019013BC080911D01843039F482E090E044
:1005C00090931A018093190130C081E090E09093DC
:1005D0001A018093190129C080911D01882339F4E3
:1005E00081E090E090931A01809319011EC083E08E
:1005F00090E090931A018093190117C080911D011A
:10060000882339F481E090E090931A0180931901D6
:100610000CC082E090E090931A018093190105C00C
:1006200010921F0110921E010000809119019091FB
:100630001A018130910581F08130910578F0823086
:10064000910519F0039729F00AC080E180932201F7
:1006500006C01092220103C0000001C0000000008B
:10066000DF91CF910895CF93DF93CDB7DEB780911F
:10067000170190911801009719F0019769F007C0D0
:1006800081E090E0909318018093170106C01092CA
:1006900018011092170101C000008091170190917C
:1006A0001801009781F0019709F00EC085E290E0F3
:1006B0003091230120912001322B20912201232B04
:1006C000FC01208301C000000000DF91CF9108955C
:1006D000CF93DF93CDB7DEB781E290E0FC011082CB
:1006E00082E290E02FEFFC01208384E290E02FEF84
:1006F000FC01208385E290E0FC01108210921D0134
:1007000010921F0110921E0110921C0110921B01E9
:1007100010921801109217011092210110922401D9
:1007200064E170E080E090E00E9490000E94BE00D2
:1007300080E290E0FC018081809580931D010E9401
:100740006E010E943C020E94BF020E94330300001F
:10075000809112018823E1F310921201E9CFF894FD
:02076000FFCFC9
:10076200000000020000000067000000000001001D
:02077200000085
:00000001FF
